:100000000C945D000C9485000C9485000C94850084
:100010000C9485000C9485000C9485000C9485004C
:100020000C9485000C9485000C9485000C9485003C
:100030000C9485000C9485000C9485000C9485002C
:100040000C94E0040C9485000C94AE040C94880489
:100050000C9485000C9485000C9485000C9485000C
:100060000C9485000C9485000000000024002700FB
:100070002A0000000000250028002B0004040404CE
:100080000404040402020202020203030303030342
:10009000010204081020408001020408102001021F
:1000A00004081020000000080002010000030407FB
:1000B00000000000000000002A0511241FBECFEF41
:1000C000D8E0DEBFCDBF25E0A2E4B1E001C01D92C3
:1000D000AA35B207E1F711E0A0E0B1E0EEEBF3E101
:1000E00002C005900D92A234B107D9F710E0CDE51A
:1000F000D0E004C02197FE010E94D209CC35D1077F
:10010000C9F70E946D050C94DD090C940000E3E52D
:10011000F1E0A089B18982E08C93A485B5851C9219
:10012000A685B7858FEC8C93108EA489B58986E05F
:100130008C93A289B3898C9180618C93A289B389B5
:100140008C9188608C93A289B3898C9180688C9300
:100150000288F389E02D80818F7D80830895CF927E
:10016000DF92EF92FF920F931F93CF93DF936C0177
:100170007A018B01C0E0D0E0CE15DF0589F0D8010F
:100180006D918D01D601ED91FC910190F081E02DF2
:10019000C6010995892B11F47E0102C02196ECCF8E
:1001A000C701DF91CF911F910F91FF90EF90DF90EA
:1001B000CF900895FC01918D828D981761F0828D0A
:1001C000DF01A80FB11D5D968C91928D9F5F9F738B
:1001D000928F90E008958FEF9FEF0895FC01918D2D
:1001E000828D981731F0828DE80FF11D858D90E09A
:1001F00008958FEF9FEF0895FC01918D228D892F37
:1002000090E0805C9F4F821B91098F73992708951E
:1002100083E591E00E94FC0021E0892B09F420E0B5
:10022000822F0895FC01848DDF01A80FB11DA35A10
:10023000BF4F2C91848D90E001968F739927848F06
:10024000A689B7892C93A089B1898C9180648C93FD
:10025000938D848D981306C00288F389E02D8081E8
:100260008F7D80830895EF92FF920F931F93CF931A
:10027000DF93EC0181E0888F9B8D8C8D981305C0F6
:10028000E889F989808185FD24C0F62E0B8D10E068
:100290000F5F1F4F0F731127E02E8C8DE8120CC0DB
:1002A0000FB607FCFACFE889F989808185FFF5CF81
:1002B000CE010E941201F1CF8B8DFE01E80FF11DDE
:1002C000E35AFF4FF0820B8FEA89FB8980818062BD
:1002D00007C0EE89FF896083E889F989808180649D
:1002E000808381E090E0DF91CF911F910F91FF908B
:1002F000EF900895CF93DF93EC01888D8823C9F0A8
:10030000EA89FB89808185FD05C0A889B9898C911E
:1003100086FD0FC00FB607FCF5CF808185FFF2CFB9
:10032000A889B9898C9185FFEDCFCE010E94120179
:10033000E7CFDF91CF91089580E090E0892B29F0FD
:100340000E94080181110C940000089590E0FC01C6
:10035000EC55FF4F3491FC01E057FF4F2491FC0115
:10036000E458FF4FE491EE2309F43BC0332339F105
:10037000333091F038F43130A9F0323001F584B5E2
:100380008F7D12C0373091F03830A1F03430B9F49D
:10039000809180008F7D03C0809180008F77809353
:1003A00080000DC084B58F7784BD09C08091B000F6
:1003B0008F7703C08091B0008F7D8093B000F0E014
:1003C000EE0FFF1FEE58FF4FA591B4918FB7F89431
:1003D000EC91611103C020952E2301C02E2B2C938C
:1003E0008FBF0895CF93DF9390E0FC01E057FF4F5C
:1003F0002491FC01E458FF4F8491882361F190E03F
:10040000880F991FFC01E859FF4FC591D491FC0159
:10041000EE58FF4FA591B491611109C09FB7F894B0
:100420008881209582238883EC912E230BC0623033
:1004300061F49FB7F8943881822F80958323888355
:10044000EC912E2B2C939FBF06C08FB7F894E881B8
:100450002E2B28838FBFDF91CF9108953FB7F8945B
:100460008091470190914801A0914901B0914A01C2
:1004700026B5A89B05C02F3F19F00196A11DB11DFF
:100480003FBFBA2FA92F982F8827820F911DA11D3A
:10049000B11DBC01CD0142E0660F771F881F991F77
:1004A0004A95D1F708958F929F92AF92BF92CF92C3
:1004B000DF92EF92FF926B017C010E942E024B01B2
:1004C0005C01C114D104E104F104F1F00E942E0298
:1004D000DC01CB0188199909AA09BB09883E934020
:1004E000A105B10570F321E0C21AD108E108F108B5
:1004F00088EE880E83E0981EA11CB11CC114D104A3
:10050000E104F10419F7DDCFFF90EF90DF90CF9079
:10051000BF90AF909F908F9008952FB7F8946091FF
:1005200043017091440180914501909146012FBF94
:1005300008958F929F92AF92BF92CF92DF92EF92E7
:10054000FF926B017C010E948D024B015C01C60E83
:10055000D71EE81EF91E0E948D02681579058A05CE
:100560009B0528F0C616D706E806F906A0F7FF9007
:10057000EF90DF90CF90BF90AF909F908F900895B5
:10058000CF93DF9380E480937C0080917A00806435
:1005900080937A0080917A0086FDFCCF609178008C
:1005A0008091790070E0782B072E000C880B990B56
:1005B0000E947B0729EF3FE049E65DE30E94DA07EE
:1005C00020913802309139022F5F3F4F283C31058E
:1005D0002CF4309339022093380204C0109239026F
:1005E00010923802E0913802F0913902EE0FFF1FAD
:1005F000EE0FFF1FE85CFD4F628373838483958356
:10060000CAE3D2E060E070E0CB01299139914991D1
:1006100059910E94BB0825E0CA35D207B1F720E006
:1006200030E048E453E40E942709DF91CF91089518
:10063000CF93DF93EC0160E086E00E94A60160E0CA
:1006400085E00E94A60160E084E00E94A601C1301E
:10065000D10541F0C230D10541F0CD2B61F461E00C
:1006600086E005C061E085E002C061E084E0DF91E2
:10067000CF910C94A601DF91CF9108950E94D809E3
:100680006115710579F0FB0101900020E9F73197C0
:10069000AF01461B570BDC01ED91FC910280F38109
:1006A000E02D099480E090E008954F925F926F9260
:1006B0007F92EF92FF920F931F93CF93DF93CDB76B
:1006C000DEB7A1970FB6F894DEBF0FBECDBF7C0199
:1006D000FA01CB0119A2223008F42AE08E010F5D45
:1006E0001F4F422E512C612C712CBF01A30192018E
:1006F0000E949808F901CA01015011096A3014F4E6
:10070000605D01C0695CD8016C93232B242B252BE1
:1007100061F7B801C7010E944003A1960FB6F89493
:10072000DEBF0FBECDBFDF91CF911F910F91FF9024
:10073000EF907F906F905F904F9008954F925F92EF
:100740006F927F928F929F92AF92BF92CF92DF92E1
:10075000EF92FF926B017C01B42E9B01AC010E94D1
:10076000CD09882319F060E171E027C02601370127
:10077000E89477F82FEF3FEF4FE75FE7C301B2014F
:100780000E94CD0981110DC02FEF3FEF4FE75FE7CA
:10079000C301B2010E94740718161CF464E171E0F1
:1007A0000CC02FEF3FEF4FE75FE4C701B6010E9497
:1007B000C809181694F468E171E083E591E0FF90B0
:1007C000EF90DF90CF90BF90AF909F908F907F90F1
:1007D0006F905F904F900C9440032FEF3FEF4FE7E7
:1007E0005FECC701B6010E94740787FDE4CF20E0EB
:1007F00030E0A901C701B6010E94740787FF11C04C
:10080000E0915301F09154010190F081E02D6DE2EF
:1008100083E591E009954C01F7FAF094F7F8F0942C
:1008200002C0812C912CA12C60E070E080E09FE35D
:10083000AB1441F020E030E040E251E40E9427098F
:10084000A394F6CF9B01AC01C701B6010E94BB087F
:100850002B013C010E9499096B017C010E947907E0
:100860009B01AC01C301B2010E94BA082B013C01FB
:100870002AE0B701A60183E591E00E9455037C01BF
:10088000E80CF91CBB2069F0E0915301F091540190
:100890000190F081E02D6EE283E591E00995E80E8C
:1008A000F91EDB2CDD2031F120E030E040E251E4A4
:1008B000C301B2010E94DA072B013C010E94990991
:1008C0004B01A12CB12C2AE0B501A40183E591E0F4
:1008D0000E945503E80EF91EC501B4010E94790774
:1008E0009B01AC01C301B2010E94BA082B013C017B
:1008F000DA94D8CFC701FF90EF90DF90CF90BF90F0
:10090000AF909F908F907F906F905F904F900895E1
:100910001F920F920FB60F9211242F933F934F9374
:100920005F936F937F938F939F93AF93BF93EF9357
:10093000FF9383E591E00E941201FF91EF91BF9137
:10094000AF919F918F917F916F915F914F913F9167
:100950002F910F900FBE0F901F9018951F920F921E
:100960000FB60F9211242F938F939F93EF93FF93C2
:10097000E0916301F09164018081E0916901F0915F
:100980006A0182FD12C0908180916C018F5F8F732C
:1009900020916D01821751F0E0916C01F0E0ED5A69
:1009A000FE4F958F80936C0101C08081FF91EF9184
:1009B0009F918F912F910F900FBE0F901F901895C0
:1009C0001F920F920FB60F9211242F933F938F9384
:1009D0009F93AF93BF938091430190914401A09165
:1009E0004501B09146013091420123E0230F2D379C
:1009F00020F40196A11DB11D05C026E8230F029623
:100A0000A11DB11D209342018093430190934401A5
:100A1000A0934501B0934601809147019091480110
:100A2000A0914901B0914A010196A11DB11D809389
:100A3000470190934801A0934901B0934A01BF91A7
:100A4000AF919F918F913F912F910F900FBE0F907B
:100A50001F901895E3E5F1E01382128288EE93E08F
:100A6000A0E0B0E084839583A683B78384E091E01F
:100A70009183808385EC90E09587848784EC90E077
:100A80009787868780EC90E0918B808B81EC90E05B
:100A9000938B828B82EC90E0958B848B86EC90E03C
:100AA000978B868B118E128E138E148EE0EFF1E0F1
:100AB0001682178210861186128613861486158672
:100AC00016861786108A118A128A138A148A158A42
:100AD00010923902109238020895789484B5826099
:100AE00084BD84B5816084BD85B5826085BD85B5D2
:100AF000816085BD80916E00816080936E00109250
:100B000081008091810082608093810080918100CA
:100B1000816080938100809180008160809380005B
:100B20008091B10084608093B1008091B0008160B9
:100B30008093B00080917A00846080937A008091E5
:100B40007A00826080937A0080917A00816080933D
:100B50007A0080917A00806880937A001092C100B8
:100B6000109234021092350210923602109237021F
:100B70001092F2011092F3011092F4011092F5011B
:100B800068EB7BE080E090E00E94990283E591E0D1
:100B900090933302809332020E9487000E948D025C
:100BA0006093F2017093F3018093F4019093F50147
:100BB0006CE171E080913202909133020E94400317
:100BC0006AE070E080E090E00E94990281E080930A
:100BD000060261E08DE00E94F20161E086E00E9481
:100BE000F20161E085E00E94F20161E084E00E9490
:100BF000F20161E082E00E94F20160E08EE00E947A
:100C0000F2010E9487000E948D02672B682B692BDE
:100C100041F40E948D02623071058105910508F44E
:100C20000FC10E948D0260934F0170935001809319
:100C3000510190935201C0904B01D0904C01E09033
:100C40004D01F0904E016C157D058E059F0540F419
:100C500060934B0170934C0180934D0190934E0132
:100C6000C0904B01D0904C01E0904D01F0904E01AE
:100C70009B01AC012C193D094E095F0969017A01FC
:100C80003AEFC316D104E104F10408F4D9C060932B
:100C90004B0170934C0180934D0190934E0184EF72
:100CA00091E0A0E0B0E08093FE019093FF01A0935B
:100CB0000002B093010210920202109203021092FD
:100CC0000402109205028091F6019091F701A09123
:100CD000F801B091F9018093FA019093FB01A09380
:100CE000FC01B093FD010E948D026093F6017093A8
:100CF000F7018093F8019093F9010E948D026093AF
:100D0000F2017093F3018093F4019093F5010E9436
:100D10008D026B017C016EE271E080913202909154
:100D200033020E9440032AE041E050E060E070E0BE
:100D300080913202909133020E94550365E371E085
:100D400080913202909133020E9440032AE0B70161
:100D5000A60180913202909133020E94550367E30D
:100D600071E080913202909133020E9440038091A1
:100D7000F6019091F701A091F801B091F901B70146
:100D8000A601481B590B6A0B7B0B2AE080913202AB
:100D9000909133020E94550367E371E08091320223
:100DA000909133020E9440034091F6015091F70167
:100DB0006091F8017091F9018091FA019091FB0125
:100DC000A091FC01B091FD01481B590B6A0B7B0BF4
:100DD0002AE080913202909133020E94550369E328
:100DE00071E080913202909133020E9440030E9490
:100DF0008D02AB01BC012AE0809132029091330256
:100E00000E945503C0913202D09133026BE371E02E
:100E1000CE010E9440036BE271E0CE010E944003CC
:100E200065E070E080E090E00E9499020E948D02EF
:100E30006093F6017093F7018093F8019093F901A4
:100E400061E082E00E94A6010E94C00220E030E042
:100E500044E652E40E94740787FF2CC00E94C0023F
:100E600043E00E949E036BE271E083E591E00E9403
:100E70004003CAE0D0E00E94C0026AE070E080E077
:100E800090E00E9453022197B1F780E090E00E9429
:100E9000180364EF71E080E090E00E94530283E069
:100EA00090E00E94180360E971E080E090E00E9409
:100EB0005302CACF60E082E00E94A60181E090E088
:100EC0000E9418030E94C00243E00E949E036BE24E
:100ED00071E083E591E00E94400364EF71E080E0FF
:100EE00090E00E945302EECF0E94B60708F481E022
:100EF0000895E89409C097FB3EF49095809570950D
:100F000061957F4F8F4F9F4F9923A9F0F92F96E955
:100F1000BB279395F695879577956795B795F111CA
:100F2000F8CFFAF4BB0F11F460FF1BC06F5F7F4F67
:100F30008F4F9F4F16C0882311F096E911C0772379
:100F400021F09EE8872F762F05C0662371F096E882
:100F5000862F70E060E02AF09A95660F771F881F51
:100F6000DAF7880F9695879597F90895990F0008F5
:100F7000550FAA0BE0E8FEEF16161706E807F9076B
:100F8000C0F012161306E407F50798F0621B730B06
:100F9000840B950B39F40A2661F0232B242B252B87
:100FA00021F408950A2609F4A140A6958FEF811D2A
:100FB000811D08950E94ED070C945E080E94500860
:100FC00038F00E94570820F0952311F00C94470840
:100FD0000C944D0811240C9492080E946F0870F331
:100FE000959FC1F3950F50E0551F629FF001729FCE
:100FF000BB27F00DB11D639FAA27F00DB11DAA1FDD
:10100000649F6627B00DA11D661F829F2227B00D29
:10101000A11D621F739FB00DA11D621F839FA00DB4
:10102000611D221F749F3327A00D611D231F849F04
:10103000600D211D822F762F6A2F11249F5750405B
:101040009AF0F1F088234AF0EE0FFF1FBB1F661FD6
:10105000771F881F91505040A9F79E3F510580F09F
:101060000C9447080C9492085F3FE4F3983ED4F345
:10107000869577956795B795F795E7959F5FC1F743
:10108000FE2B880F911D9695879597F9089597F9EE
:101090009F6780E870E060E008959FEF80EC08951E
:1010A00000240A9416161706180609060895002447
:1010B0000A9412161306140605060895092E0394C1
:1010C000000C11F4882352F0BB0F40F4BF2B11F435
:1010D00060FF04C06F5F7F4F8F4F9F4F089557FD94
:1010E0009058440F551F59F05F3F71F04795880F96
:1010F00097FB991F61F09F3F79F08795089512162D
:1011000013061406551FF2CF4695F1DF08C01616D8
:1011100017061806991FF1CF869571056105089489
:101120000895E894BB2766277727CB0197F90895A0
:10113000A1E21A2EAA1BBB1BFD010DC0AA1FBB1FDB
:10114000EE1FFF1FA217B307E407F50720F0A21B4D
:10115000B30BE40BF50B661F771F881F991F1A94BA
:1011600069F760957095809590959B01AC01BD01E4
:10117000CF0108955058BB27AA270E94D2080C948B
:101180005E080E94500838F00E94570820F039F499
:101190009F3F19F426F40C944D080EF4E095E7FBFC
:1011A0000C944708E92F0E946F0858F3BA1762079A
:1011B00073078407950720F079F4A6F50C9491083D
:1011C0000EF4E0950B2EBA2FA02D0B01B901900162
:1011D0000C01CA01A0011124FF27591B99F0593FA6
:1011E00050F4503E68F11A16F040A22F232F342FEE
:1011F0004427585FF3CF469537952795A795F0403C
:101200005395C9F77EF41F16BA0B620B730B840B50
:10121000BAF09150A1F0FF0FBB1F661F771F881F08
:10122000C2F70EC0BA0F621F731F841F48F4879560
:1012300077956795B795F7959E3F08F0B0CF939552
:10124000880F08F09927EE0F9795879508950E94CB
:101250003B090C945E080E94570858F00E94500801
:1012600040F029F45F3F29F00C94470851110C9489
:1012700092080C944D080E946F0868F39923B1F30B
:10128000552391F3951B550BBB27AA2762177307AC
:10129000840738F09F5F5F4F220F331F441FAA1F40
:1012A000A9F335D00E2E3AF0E0E832D091505040FC
:1012B000E695001CCAF72BD0FE2F29D0660F771FAA
:1012C000881FBB1F261737074807AB07B0E809F090
:1012D000BB0B802DBF01FF2793585F4F3AF09E3F15
:1012E000510578F00C9447080C9492085F3FE4F3A2
:1012F000983ED4F3869577956795B795F7959F5F58
:10130000C9F7880F911D9695879597F90895E1E0A3
:10131000660F771F881FBB1F621773078407BA0702
:1013200020F0621B730B840BBA0BEE1F88F7E0955D
:1013300008950E94770888F09F5798F0B92F992751
:10134000B751B0F0E1F0660F771F881F991F1AF0B0
:10135000BA95C9F714C0B13091F00E949108B1E07C
:1013600008950C949108672F782F8827B85F39F07B
:10137000B93FCCF3869577956795B395D9F73EF449
:1013800090958095709561957F4F8F4F9F4F0895F1
:101390000E94B60708F48FEF08950E94B607880BE5
:1013A000990B0895EE0FFF1F0590F491E02D09941D
:0E13B00081E090E0F8940C94DD09F894FFCFF2
:1013BE00000000003301AF00FC00DA00EE007A01FD
:1013CE006E616E00696E66006F766600564D445013
:1013DE00565F317C315F564D4450560D0A00564DC6
:1013EE004450455F003A323A007C005F564D4450FF
:0213FE004500A8
:107800000C94343C0C94513C0C94513C0C94513CE1
:107810000C94513C0C94513C0C94513C0C94513CB4
:107820000C94513C0C94513C0C94513C0C94513CA4
:107830000C94513C0C94513C0C94513C0C94513C94
:107840000C94513C0C94513C0C94513C0C94513C84
:107850000C94513C0C94513C0C94513C0C94513C74
:107860000C94513C0C94513C11241FBECFEFD8E036
:10787000DEBFCDBF11E0A0E0B1E0ECE9FFE702C060
:1078800005900D92A230B107D9F712E0A2E0B1E065
:1078900001C01D92AD30B107E1F70E942D3D0C945F
:1078A000CC3F0C94003C982F959595959595959582
:1078B000905D8F708A307CF0282F295A8091C0000B
:1078C00085FFFCCF9093C6008091C00085FFFCCF60
:1078D0002093C6000895282F205DF0CF982F809127
:1078E000C00085FFFCCF9093C6000895EF92FF92F1
:1078F0000F931F93EE24FF2487018091C00087FD22
:1079000017C00894E11CF11C011D111D81E4E8164B
:1079100082E4F8068FE0080780E0180770F3E09132
:107920000401F091050109958091C00087FFE9CF1E
:107930008091C6001F910F91FF90EF9008950E94D3
:10794000763C982F8091C00085FFFCCF9093C600B5
:1079500091362CF490330CF09053892F089597555D
:10796000892F08951F930E949F3C182F0E949F3CCF
:107970001295107F810F1F9108951F93182F882350
:1079800021F00E94763C1150E1F71F9108951F935A
:10799000182F0E94763C803249F0809103018F5F5E
:1079A000809303018530C1F01F9108958091C0003C
:1079B00085FFFCCF84E18093C6008091C00085FFE5
:1079C000FCCF1093C6008091C00085FFFCCF80E102
:1079D0008093C6001F910895E0910401F091050184
:1079E00009951F9108950E94763C803241F0809164
:1079F00003018F5F80930301853081F008958091AA
:107A0000C00085FFFCCF84E18093C6008091C00058
:107A100085FFFCCF80E18093C6000895E0910401CA
:107A2000F09105010995089540E951E08823A1F0FE
:107A30002D9A28EE33E0FA013197F1F721503040CA
:107A4000D1F72D9828EE33E0FA013197F1F7215064
:107A50003040D1F7815061F708953F924F925F9285
:107A60006F927F928F929F92AF92BF92CF92DF924E
:107A7000EF92FF920F931F93CF93DF93000080E16B
:107A80008093C4001092C50088E18093C10086E015
:107A90008093C2005098589A259A81E00E94143D24
:107AA00024E1F22E9EE1E92E85E9D82E0FE0C02ECA
:107AB00010E1B12EAA24A394B1E49B2EA6E58A2E50
:107AC000F2E57F2EE0E26E2E79E4572E63E5462E36
:107AD00050E5352E0E94763C8033B1F18133B9F107
:107AE000803409F46FC0813409F476C0823409F41B
:107AF00085C0853409F488C0803531F1823521F1A3
:107B0000813511F1853509F485C0863509F48DC0BC
:107B1000843609F496C0843709F403C1853709F423
:107B200072C1863709F466C0809103018F5F80932C
:107B30000301853079F6E0910401F0910501099582
:107B40000E94763C803351F60E94F33CC3CF0E94E2
:107B5000763C803249F78091C00085FFFCCFF092DF
:107B6000C6008091C00085FFFCCF9092C600809136
:107B7000C00085FFFCCF8092C6008091C00085FFC9
:107B8000FCCF7092C6008091C00085FFFCCF609250
:107B9000C6008091C00085FFFCCF5092C600809146
:107BA000C00085FFFCCF4092C6008091C00085FFD9
:107BB000FCCF3092C6008091C00085FFFCCFB09210
:107BC000C60088CF0E94763C863808F4BDCF0E945C
:107BD000763C0E94F33C7ECF0E94763C803809F4CC
:107BE0009CC0813809F40BC1823809F43CC1883942
:107BF00009F48FC080E00E94C73C6CCF84E10E94F2
:107C0000BD3C0E94F33C66CF85E00E94BD3C0E94D3
:107C1000F33C60CF0E94763C809306010E94763C44
:107C2000809307010E94F33C55CF0E94763C80333D
:107C300009F41DC183E00E94BD3C80E00E94C73C66
:107C400049CF0E94763C809309020E94763C809343
:107C5000080280910C028E7F80930C020E94763C79
:107C6000853409F415C18091080290910902892B8D
:107C700089F000E010E00E94763CF801E85FFE4FDA
:107C800080830F5F1F4F80910802909109020817AF
:107C9000190788F30E94763C803209F045CF809125
:107CA0000C0280FF01C16091060170910701660F0F
:107CB000771F7093070160930601A0910802B091AD
:107CC00009021097C9F0E8E0F1E09B01AD014E0F09
:107CD0005F1FF999FECF32BD21BD819180BDFA9A17
:107CE000F99A2F5F3F4FE417F50799F76A0F7B1F4B
:107CF00070930701609306018091C00085FFFCCF5F
:107D0000F092C6008091C00085FFFCCFB092C60003
:107D1000E1CE83E00E94C73CDDCE82E00E94C73CFA
:107D2000D9CE0E94763C809309020E94763C8093D3
:107D300008028091060190910701880F991F909386
:107D40000701809306010E94763C853409F4A6C0A1
:107D500080910C028E7F80930C020E94763C8032D0
:107D600009F0B8CE8091C00085FFFCCFF092C6002C
:107D7000609108027091090261157105B9F140E046
:107D800050E080910C02A82FA170B82FB27011C0E2
:107D9000BB2309F45CC0E0910601F0910701319624
:107DA000F0930701E09306014F5F5F4F46175707B7
:107DB000E8F4AA2369F3F999FECF209106013091E6
:107DC000070132BD21BDF89A90B58091C00085FFB2
:107DD000FCCF9093C6002F5F3F4F30930701209355
:107DE00006014F5F5F4F4617570718F38091C00099
:107DF00085FDE5CE8091C00085FFF8CFE0CE81E023
:107E00000E94C73C67CE0E94763C803209F08CCE3F
:107E10008091C00085FFFCCFF092C6008091C00029
:107E200085FFFCCFE092C6008091C00085FFFCCFAB
:107E3000D092C6008091C00085FFFCCFC092C600E2
:107E40008091C00085FFFCCFB092C60043CEE09188
:107E50000601F091070194918091C00085FFFCCF4D
:107E60009093C6009CCF80E10E94C73C33CE0E9415
:107E7000763C0E94763C182F0E94763C112309F430
:107E800083C0113009F484C08FE00E94C73C22CE29
:107E900080910C02816080930C02E5CE80910C02EF
:107EA000816080930C0259CF809107018823880F4D
:107EB000880B8A2180930B02809106019091070123
:107EC000880F991F90930701809306018091080203
:107ED00080FF09C080910802909109020196909359
:107EE000090280930802F894F999FECF1127E091D6
:107EF0000601F0910701C8E0D1E08091080290915D
:107F00000902103091F40091570001700130D9F34B
:107F100003E000935700E89500915700017001308D
:107F2000D9F301E100935700E89509901990009169
:107F3000570001700130D9F301E000935700E89534
:107F40001395103498F011270091570001700130FB
:107F5000D9F305E000935700E895009157000170B0
:107F60000130D9F301E100935700E895329602976A
:107F700009F0C7CF103011F00296E5CF112480919F
:107F8000C00085FFB9CEBCCE8EE10E94C73CA2CD19
:0C7F900085E90E94C73C9ECDF894FFCF0D
:027F9C00800063
:040000030000780081
:00000001FF